{
  "contractName": "MultiSigWallet",
  "abi": [
    {
      "inputs": [
        {
          "internalType": "address[]",
          "name": "_owners",
          "type": "address[]"
        },
        {
          "internalType": "uint256",
          "name": "_required",
          "type": "uint256"
        }
      ],
      "stateMutability": "nonpayable",
      "type": "constructor"
    },
    {
      "anonymous": false,
      "inputs": [
        {
          "indexed": true,
          "internalType": "address",
          "name": "owner",
          "type": "address"
        },
        {
          "indexed": true,
          "internalType": "uint256",
          "name": "txId",
          "type": "uint256"
        }
      ],
      "name": "Approve",
      "type": "event"
    },
    {
      "anonymous": false,
      "inputs": [
        {
          "indexed": true,
          "internalType": "address",
          "name": "sender",
          "type": "address"
        },
        {
          "indexed": false,
          "internalType": "uint256",
          "name": "amount",
          "type": "uint256"
        },
        {
          "indexed": false,
          "internalType": "uint256",
          "name": "balance",
          "type": "uint256"
        }
      ],
      "name": "Deposit",
      "type": "event"
    },
    {
      "anonymous": false,
      "inputs": [
        {
          "indexed": true,
          "internalType": "uint256",
          "name": "txId",
          "type": "uint256"
        }
      ],
      "name": "Execute",
      "type": "event"
    },
    {
      "anonymous": false,
      "inputs": [
        {
          "indexed": true,
          "internalType": "address",
          "name": "owner",
          "type": "address"
        },
        {
          "indexed": true,
          "internalType": "uint256",
          "name": "txId",
          "type": "uint256"
        }
      ],
      "name": "Revoke",
      "type": "event"
    },
    {
      "anonymous": false,
      "inputs": [
        {
          "indexed": true,
          "internalType": "uint256",
          "name": "txId",
          "type": "uint256"
        }
      ],
      "name": "Submit",
      "type": "event"
    },
    {
      "inputs": [
        {
          "internalType": "uint256",
          "name": "",
          "type": "uint256"
        },
        {
          "internalType": "address",
          "name": "",
          "type": "address"
        }
      ],
      "name": "confirmations",
      "outputs": [
        {
          "internalType": "bool",
          "name": "",
          "type": "bool"
        }
      ],
      "stateMutability": "view",
      "type": "function"
    },
    {
      "inputs": [
        {
          "internalType": "address",
          "name": "",
          "type": "address"
        }
      ],
      "name": "isOwner",
      "outputs": [
        {
          "internalType": "bool",
          "name": "",
          "type": "bool"
        }
      ],
      "stateMutability": "view",
      "type": "function"
    },
    {
      "inputs": [
        {
          "internalType": "uint256",
          "name": "",
          "type": "uint256"
        }
      ],
      "name": "owners",
      "outputs": [
        {
          "internalType": "address",
          "name": "",
          "type": "address"
        }
      ],
      "stateMutability": "view",
      "type": "function"
    },
    {
      "inputs": [],
      "name": "required",
      "outputs": [
        {
          "internalType": "uint256",
          "name": "",
          "type": "uint256"
        }
      ],
      "stateMutability": "view",
      "type": "function"
    },
    {
      "inputs": [
        {
          "internalType": "uint256",
          "name": "",
          "type": "uint256"
        }
      ],
      "name": "transactions",
      "outputs": [
        {
          "internalType": "address",
          "name": "to",
          "type": "address"
        },
        {
          "internalType": "uint256",
          "name": "value",
          "type": "uint256"
        },
        {
          "internalType": "bytes",
          "name": "data",
          "type": "bytes"
        },
        {
          "internalType": "bool",
          "name": "executed",
          "type": "bool"
        }
      ],
      "stateMutability": "view",
      "type": "function"
    },
    {
      "stateMutability": "payable",
      "type": "receive"
    },
    {
      "inputs": [
        {
          "internalType": "address",
          "name": "_to",
          "type": "address"
        },
        {
          "internalType": "uint256",
          "name": "_value",
          "type": "uint256"
        },
        {
          "internalType": "bytes",
          "name": "_data",
          "type": "bytes"
        }
      ],
      "name": "submit",
      "outputs": [],
      "stateMutability": "nonpayable",
      "type": "function"
    },
    {
      "inputs": [
        {
          "internalType": "uint256",
          "name": "_txId",
          "type": "uint256"
        }
      ],
      "name": "approve",
      "outputs": [],
      "stateMutability": "nonpayable",
      "type": "function"
    },
    {
      "inputs": [
        {
          "internalType": "uint256",
          "name": "_txId",
          "type": "uint256"
        }
      ],
      "name": "execute",
      "outputs": [],
      "stateMutability": "nonpayable",
      "type": "function"
    },
    {
      "inputs": [
        {
          "internalType": "uint256",
          "name": "_txId",
          "type": "uint256"
        }
      ],
      "name": "revoke",
      "outputs": [],
      "stateMutability": "nonpayable",
      "type": "function"
    }
  ],
  "bytecode": "0x60806040523480156200001157600080fd5b506040516200235a3803806200235a83398181016040528101906200003791906200050d565b60008251116200007e576040517f08c379a00000000000000000000000000000000000000000000000000000000081526004016200007590620005d4565b60405180910390fd5b60008111801562000090575081518111155b620000d2576040517f08c379a0000000000000000000000000000000000000000000000000000000008152600401620000c9906200066c565b60405180910390fd5b60005b8251811015620002d4576000838281518110620000f757620000f66200068e565b5b60200260200101519050600073ffffffffffffffffffffffffffffffffffffffff168173ffffffffffffffffffffffffffffffffffffffff160362000173576040517f08c379a00000000000000000000000000000000000000000000000000000000081526004016200016a906200070d565b60405180910390fd5b600160008273ffffffffffffffffffffffffffffffffffffffff1673ffffffffffffffffffffffffffffffffffffffff16815260200190815260200160002060009054906101000a900460ff161562000203576040517f08c379a0000000000000000000000000000000000000000000000000000000008152600401620001fa906200077f565b60405180910390fd5b60018060008373ffffffffffffffffffffffffffffffffffffffff1673ffffffffffffffffffffffffffffffffffffffff16815260200190815260200160002060006101000a81548160ff0219169083151502179055506000819080600181540180825580915050600190039060005260206000200160009091909190916101000a81548173ffffffffffffffffffffffffffffffffffffffff021916908373ffffffffffffffffffffffffffffffffffffffff160217905550508080620002cb90620007d0565b915050620000d5565b508060028190555050506200081d565b6000604051905090565b600080fd5b600080fd5b600080fd5b6000601f19601f8301169050919050565b7f4e487b7100000000000000000000000000000000000000000000000000000000600052604160045260246000fd5b6200034882620002fd565b810181811067ffffffffffffffff821117156200036a57620003696200030e565b5b80604052505050565b60006200037f620002e4565b90506200038d82826200033d565b919050565b600067ffffffffffffffff821115620003b057620003af6200030e565b5b602082029050602081019050919050565b600080fd5b600073ffffffffffffffffffffffffffffffffffffffff82169050919050565b6000620003f382620003c6565b9050919050565b6200040581620003e6565b81146200041157600080fd5b50565b6000815190506200042581620003fa565b92915050565b6000620004426200043c8462000392565b62000373565b90508083825260208201905060208402830185811115620004685762000467620003c1565b5b835b8181101562000495578062000480888262000414565b8452602084019350506020810190506200046a565b5050509392505050565b600082601f830112620004b757620004b6620002f8565b5b8151620004c98482602086016200042b565b91505092915050565b6000819050919050565b620004e781620004d2565b8114620004f357600080fd5b50565b6000815190506200050781620004dc565b92915050565b60008060408385031215620005275762000526620002ee565b5b600083015167ffffffffffffffff811115620005485762000547620002f3565b5b62000556858286016200049f565b92505060206200056985828601620004f6565b9150509250929050565b600082825260208201905092915050565b7f6f776e6572732072657175697265640000000000000000000000000000000000600082015250565b6000620005bc600f8362000573565b9150620005c98262000584565b602082019050919050565b60006020820190508181036000830152620005ef81620005ad565b9050919050565b7f696e76616c6964206e756d626572206f6620726571756972656420636f6e666960008201527f726d6174696f6e73000000000000000000000000000000000000000000000000602082015250565b60006200065460288362000573565b91506200066182620005f6565b604082019050919050565b60006020820190508181036000830152620006878162000645565b9050919050565b7f4e487b7100000000000000000000000000000000000000000000000000000000600052603260045260246000fd5b7f696e76616c6964206f776e657200000000000000000000000000000000000000600082015250565b6000620006f5600d8362000573565b91506200070282620006bd565b602082019050919050565b600060208201905081810360008301526200072881620006e6565b9050919050565b7f6f776e6572206e6f7420756e6971756500000000000000000000000000000000600082015250565b60006200076760108362000573565b915062000774826200072f565b602082019050919050565b600060208201905081810360008301526200079a8162000758565b9050919050565b7f4e487b7100000000000000000000000000000000000000000000000000000000600052601160045260246000fd5b6000620007dd82620004d2565b91507fffffffffffffffffffffffffffffffffffffffffffffffffffffffffffffffff8203620008125762000811620007a1565b5b600182019050919050565b611b2d806200082d6000396000f3fe60806040526004361061008a5760003560e01c80633411c81c116100595780633411c81c146101b25780639ace38c2146101ef578063b759f9541461022f578063dc8452cd14610258578063fe0d94c114610283576100e1565b8063025e7c27146100e657806314de327f1461012357806320c5429b1461014c5780632f54bf6e14610175576100e1565b366100e1573373ffffffffffffffffffffffffffffffffffffffff167f90890809c654f11d6e72a28fa60149770a0d11ec6c92319d6ceb2bb0a4ea1a1534476040516100d7929190610f05565b60405180910390a2005b600080fd5b3480156100f257600080fd5b5061010d60048036038101906101089190610f6e565b6102ac565b60405161011a9190610fdc565b60405180910390f35b34801561012f57600080fd5b5061014a60048036038101906101459190611169565b6102eb565b005b34801561015857600080fd5b50610173600480360381019061016e9190610f6e565b6104a8565b005b34801561018157600080fd5b5061019c600480360381019061019791906111d8565b61073f565b6040516101a99190611220565b60405180910390f35b3480156101be57600080fd5b506101d960048036038101906101d4919061123b565b61075f565b6040516101e69190611220565b60405180910390f35b3480156101fb57600080fd5b5061021660048036038101906102119190610f6e565b61078e565b60405161022694939291906112fa565b60405180910390f35b34801561023b57600080fd5b5061025660048036038101906102519190610f6e565b610883565b005b34801561026457600080fd5b5061026d610b1d565b60405161027a9190611346565b60405180910390f35b34801561028f57600080fd5b506102aa60048036038101906102a59190610f6e565b610b23565b005b600081815481106102bc57600080fd5b906000526020600020016000915054906101000a900473ffffffffffffffffffffffffffffffffffffffff1681565b600160003373ffffffffffffffffffffffffffffffffffffffff1673ffffffffffffffffffffffffffffffffffffffff16815260200190815260200160002060009054906101000a900460ff16610377576040517f08c379a000000000000000000000000000000000000000000000000000000000815260040161036e906113be565b60405180910390fd5b600360405180608001604052808573ffffffffffffffffffffffffffffffffffffffff16815260200184815260200183815260200160001515815250908060018154018082558091505060019003906000526020600020906004020160009091909190915060008201518160000160006101000a81548173ffffffffffffffffffffffffffffffffffffffff021916908373ffffffffffffffffffffffffffffffffffffffff16021790555060208201518160010155604082015181600201908161044291906115ea565b5060608201518160030160006101000a81548160ff0219169083151502179055505050600160038054905061047791906116eb565b7f08324b3d745b914e3abd4ffbfead91e3b78391a98c173202129215ab933adfbe60405160405180910390a2505050565b600160003373ffffffffffffffffffffffffffffffffffffffff1673ffffffffffffffffffffffffffffffffffffffff16815260200190815260200160002060009054906101000a900460ff16610534576040517f08c379a000000000000000000000000000000000000000000000000000000000815260040161052b906113be565b60405180910390fd5b80600380549050811061057c576040517f08c379a00000000000000000000000000000000000000000000000000000000081526004016105739061176b565b60405180910390fd5b81600381815481106105915761059061178b565b5b906000526020600020906004020160030160009054906101000a900460ff16156105f0576040517f08c379a00000000000000000000000000000000000000000000000000000000081526004016105e790611806565b60405180910390fd5b6004600084815260200190815260200160002060003373ffffffffffffffffffffffffffffffffffffffff1673ffffffffffffffffffffffffffffffffffffffff16815260200190815260200160002060009054906101000a900460ff1661068d576040517f08c379a000000000000000000000000000000000000000000000000000000000815260040161068490611872565b60405180910390fd5b60006004600085815260200190815260200160002060003373ffffffffffffffffffffffffffffffffffffffff1673ffffffffffffffffffffffffffffffffffffffff16815260200190815260200160002060006101000a81548160ff021916908315150217905550823373ffffffffffffffffffffffffffffffffffffffff167fec9ab91322523c899ede7830ec9bfc992b5981cdcc27b91162fb23de5791117b60405160405180910390a3505050565b60016020528060005260406000206000915054906101000a900460ff1681565b60046020528160005260406000206020528060005260406000206000915091509054906101000a900460ff1681565b6003818154811061079e57600080fd5b90600052602060002090600402016000915090508060000160009054906101000a900473ffffffffffffffffffffffffffffffffffffffff16908060010154908060020180546107ed9061140d565b80601f01602080910402602001604051908101604052809291908181526020018280546108199061140d565b80156108665780601f1061083b57610100808354040283529160200191610866565b820191906000526020600020905b81548152906001019060200180831161084957829003601f168201915b5050505050908060030160009054906101000a900460ff16905084565b600160003373ffffffffffffffffffffffffffffffffffffffff1673ffffffffffffffffffffffffffffffffffffffff16815260200190815260200160002060009054906101000a900460ff1661090f576040517f08c379a0000000000000000000000000000000000000000000000000000000008152600401610906906113be565b60405180910390fd5b806003805490508110610957576040517f08c379a000000000000000000000000000000000000000000000000000000000815260040161094e9061176b565b60405180910390fd5b816003818154811061096c5761096b61178b565b5b906000526020600020906004020160030160009054906101000a900460ff16156109cb576040517f08c379a00000000000000000000000000000000000000000000000000000000081526004016109c290611806565b60405180910390fd5b826004600082815260200190815260200160002060003373ffffffffffffffffffffffffffffffffffffffff1673ffffffffffffffffffffffffffffffffffffffff16815260200190815260200160002060009054906101000a900460ff1615610a6a576040517f08c379a0000000000000000000000000000000000000000000000000000000008152600401610a61906118de565b60405180910390fd5b60016004600086815260200190815260200160002060003373ffffffffffffffffffffffffffffffffffffffff1673ffffffffffffffffffffffffffffffffffffffff16815260200190815260200160002060006101000a81548160ff021916908315150217905550833373ffffffffffffffffffffffffffffffffffffffff167f90ec57f18fa7b15c6b8d5e4d1deb90796c74b2ff23d4d0cecad0cb42a96b312860405160405180910390a350505050565b60025481565b600160003373ffffffffffffffffffffffffffffffffffffffff1673ffffffffffffffffffffffffffffffffffffffff16815260200190815260200160002060009054906101000a900460ff16610baf576040517f08c379a0000000000000000000000000000000000000000000000000000000008152600401610ba6906113be565b60405180910390fd5b806003805490508110610bf7576040517f08c379a0000000000000000000000000000000000000000000000000000000008152600401610bee9061176b565b60405180910390fd5b8160038181548110610c0c57610c0b61178b565b5b906000526020600020906004020160030160009054906101000a900460ff1615610c6b576040517f08c379a0000000000000000000000000000000000000000000000000000000008152600401610c6290611806565b60405180910390fd5b600254610c7784610e08565b1015610cb8576040517f08c379a0000000000000000000000000000000000000000000000000000000008152600401610caf9061194a565b60405180910390fd5b600060038481548110610cce57610ccd61178b565b5b9060005260206000209060040201905060018160030160006101000a81548160ff02191690831515021790555060008160000160009054906101000a900473ffffffffffffffffffffffffffffffffffffffff1673ffffffffffffffffffffffffffffffffffffffff16826001015483600201604051610d4e91906119f8565b60006040518083038185875af1925050503d8060008114610d8b576040519150601f19603f3d011682016040523d82523d6000602084013e610d90565b606091505b5050905080610dd4576040517f08c379a0000000000000000000000000000000000000000000000000000000008152600401610dcb90611a5b565b60405180910390fd5b847fddb556f1d2c1ec821e910b019d3685b229db152a0ecd517ca7e24b8bd713928960405160405180910390a25050505050565b6000806000905060005b600080549050811015610ee257600460008581526020019081526020016000206000808381548110610e4757610e4661178b565b5b9060005260206000200160009054906101000a900473ffffffffffffffffffffffffffffffffffffffff1673ffffffffffffffffffffffffffffffffffffffff1673ffffffffffffffffffffffffffffffffffffffff16815260200190815260200160002060009054906101000a900460ff1615610ecf57600182610ecc9190611a7b565b91505b8080610eda90611aaf565b915050610e12565b5080915050919050565b6000819050919050565b610eff81610eec565b82525050565b6000604082019050610f1a6000830185610ef6565b610f276020830184610ef6565b9392505050565b6000604051905090565b600080fd5b600080fd5b610f4b81610eec565b8114610f5657600080fd5b50565b600081359050610f6881610f42565b92915050565b600060208284031215610f8457610f83610f38565b5b6000610f9284828501610f59565b91505092915050565b600073ffffffffffffffffffffffffffffffffffffffff82169050919050565b6000610fc682610f9b565b9050919050565b610fd681610fbb565b82525050565b6000602082019050610ff16000830184610fcd565b92915050565b61100081610fbb565b811461100b57600080fd5b50565b60008135905061101d81610ff7565b92915050565b600080fd5b600080fd5b6000601f19601f8301169050919050565b7f4e487b7100000000000000000000000000000000000000000000000000000000600052604160045260246000fd5b6110768261102d565b810181811067ffffffffffffffff821117156110955761109461103e565b5b80604052505050565b60006110a8610f2e565b90506110b4828261106d565b919050565b600067ffffffffffffffff8211156110d4576110d361103e565b5b6110dd8261102d565b9050602081019050919050565b82818337600083830152505050565b600061110c611107846110b9565b61109e565b90508281526020810184848401111561112857611127611028565b5b6111338482856110ea565b509392505050565b600082601f8301126111505761114f611023565b5b81356111608482602086016110f9565b91505092915050565b60008060006060848603121561118257611181610f38565b5b60006111908682870161100e565b93505060206111a186828701610f59565b925050604084013567ffffffffffffffff8111156111c2576111c1610f3d565b5b6111ce8682870161113b565b9150509250925092565b6000602082840312156111ee576111ed610f38565b5b60006111fc8482850161100e565b91505092915050565b60008115159050919050565b61121a81611205565b82525050565b60006020820190506112356000830184611211565b92915050565b6000806040838503121561125257611251610f38565b5b600061126085828601610f59565b92505060206112718582860161100e565b9150509250929050565b600081519050919050565b600082825260208201905092915050565b60005b838110156112b557808201518184015260208101905061129a565b60008484015250505050565b60006112cc8261127b565b6112d68185611286565b93506112e6818560208601611297565b6112ef8161102d565b840191505092915050565b600060808201905061130f6000830187610fcd565b61131c6020830186610ef6565b818103604083015261132e81856112c1565b905061133d6060830184611211565b95945050505050565b600060208201905061135b6000830184610ef6565b92915050565b600082825260208201905092915050565b7f6e6f74206f776e65720000000000000000000000000000000000000000000000600082015250565b60006113a8600983611361565b91506113b382611372565b602082019050919050565b600060208201905081810360008301526113d78161139b565b9050919050565b7f4e487b7100000000000000000000000000000000000000000000000000000000600052602260045260246000fd5b6000600282049050600182168061142557607f821691505b602082108103611438576114376113de565b5b50919050565b60008190508160005260206000209050919050565b60006020601f8301049050919050565b600082821b905092915050565b6000600883026114a07fffffffffffffffffffffffffffffffffffffffffffffffffffffffffffffffff82611463565b6114aa8683611463565b95508019841693508086168417925050509392505050565b6000819050919050565b60006114e76114e26114dd84610eec565b6114c2565b610eec565b9050919050565b6000819050919050565b611501836114cc565b61151561150d826114ee565b848454611470565b825550505050565b600090565b61152a61151d565b6115358184846114f8565b505050565b5b818110156115595761154e600082611522565b60018101905061153b565b5050565b601f82111561159e5761156f8161143e565b61157884611453565b81016020851015611587578190505b61159b61159385611453565b83018261153a565b50505b505050565b600082821c905092915050565b60006115c1600019846008026115a3565b1980831691505092915050565b60006115da83836115b0565b9150826002028217905092915050565b6115f38261127b565b67ffffffffffffffff81111561160c5761160b61103e565b5b611616825461140d565b61162182828561155d565b600060209050601f8311600181146116545760008415611642578287015190505b61164c85826115ce565b8655506116b4565b601f1984166116628661143e565b60005b8281101561168a57848901518255600182019150602085019450602081019050611665565b868310156116a757848901516116a3601f8916826115b0565b8355505b6001600288020188555050505b505050505050565b7f4e487b7100000000000000000000000000000000000000000000000000000000600052601160045260246000fd5b60006116f682610eec565b915061170183610eec565b9250828203905081811115611719576117186116bc565b5b92915050565b7f747820646f6573206e6f74206578697374000000000000000000000000000000600082015250565b6000611755601183611361565b91506117608261171f565b602082019050919050565b6000602082019050818103600083015261178481611748565b9050919050565b7f4e487b7100000000000000000000000000000000000000000000000000000000600052603260045260246000fd5b7f747820616c726561647920657865637574656400000000000000000000000000600082015250565b60006117f0601383611361565b91506117fb826117ba565b602082019050919050565b6000602082019050818103600083015261181f816117e3565b9050919050565b7f7478206e6f7420617070726f7665640000000000000000000000000000000000600082015250565b600061185c600f83611361565b915061186782611826565b602082019050919050565b6000602082019050818103600083015261188b8161184f565b9050919050565b7f747820616c726561647920617070726f76656400000000000000000000000000600082015250565b60006118c8601383611361565b91506118d382611892565b602082019050919050565b600060208201905081810360008301526118f7816118bb565b9050919050565b7f63616e6e6f742065786563757465207478000000000000000000000000000000600082015250565b6000611934601183611361565b915061193f826118fe565b602082019050919050565b6000602082019050818103600083015261196381611927565b9050919050565b600081905092915050565b600081546119828161140d565b61198c818661196a565b945060018216600081146119a757600181146119bc576119ef565b60ff19831686528115158202860193506119ef565b6119c58561143e565b60005b838110156119e7578154818901526001820191506020810190506119c8565b838801955050505b50505092915050565b6000611a048284611975565b915081905092915050565b7f7478206661696c65640000000000000000000000000000000000000000000000600082015250565b6000611a45600983611361565b9150611a5082611a0f565b602082019050919050565b60006020820190508181036000830152611a7481611a38565b9050919050565b6000611a8682610eec565b9150611a9183610eec565b9250828201905080821115611aa957611aa86116bc565b5b92915050565b6000611aba82610eec565b91507fffffffffffffffffffffffffffffffffffffffffffffffffffffffffffffffff8203611aec57611aeb6116bc565b5b60018201905091905056fea2646970667358221220a5d291a200aeea06962097de0b07c2b11543c70a7ae34c9f6968d57ab0df8b2e64736f6c63430008110033",
  "immutableReferences": {},
  "source": "// SPDX-License-Identifier: MIT\npragma solidity ^0.8.0;\n\ncontract MultiSigWallet {\n    // Event emitted when a deposit is made to the contract\n    event Deposit(address indexed sender, uint amount, uint balance);\n\n    // Event emitted when a transaction is submitted\n    event Submit(uint indexed txId);\n\n    // Event emitted when an owner approves a transaction\n    event Approve(address indexed owner, uint indexed txId);\n\n    // Event emitted when an owner revokes their approval of a transaction\n    event Revoke(address indexed owner, uint indexed txId);\n\n    // Event emitted when a transaction is executed\n    event Execute(uint indexed txId);\n\n    // Represent a transaction\n    struct Transaction {\n        address to;\n        uint value;\n        bytes data;\n        bool executed;\n    }\n\n    // Store the addresses of the owners of the wallet\n    address[] public owners; \n    // Mapping to keep track of which addresses are owners of the wallet\n    mapping(address => bool) public isOwner; \n    // The number of required confirmations for a transaction to be executed\n    uint public required;  \n\n    // Store all of the transactions submitted to the wallet\n    Transaction[] public transactions; \n    // Mapping to keep track of which owners have approved each transaction\n    mapping(uint => mapping(address => bool)) public confirmations;   \n\n    // checks whether the caller of the function is the owner\n    modifier onlyOwner() {\n        require(isOwner[msg.sender], \"not owner\");\n        _;\n    }\n    // checks whether a transaction with a given ID exists\n    modifier txExists(uint _txId) {\n        require(_txId < transactions.length, \"tx does not exist\");\n        _;\n    }\n    // checks whether a transaction with a given ID has not been executed\n    modifier notExecuted(uint _txId) {\n        require(!transactions[_txId].executed, \"tx already executed\");\n        _;\n    }\n    // checks whether a transaction with a given ID has not been approved by the caller of the function\n    modifier notApproved(uint _txId) {\n        require(!confirmations[_txId][msg.sender], \"tx already approved\");\n        _;\n    }\n\n\n    constructor(address[] memory _owners, uint _required) {\n        require(_owners.length > 0, \"owners required\");\n        require(_required > 0 && _required <= _owners.length, \"invalid number of required confirmations\");\n\n        for (uint i = 0; i < _owners.length; i++) {\n            address owner = _owners[i];\n\n            require(owner != address(0), \"invalid owner\");\n            require(!isOwner[owner], \"owner not unique\");\n\n            isOwner[owner] = true;\n            owners.push(owner);\n        }\n\n        required = _required;\n    }\n\n    // Function that allows the contract to receive ETH\n    receive() external payable {\n        emit Deposit(msg.sender, msg.value, address(this).balance);\n    }\n    // use callData for cheaper gas fees\n    // This function allows the contract owner to submit a new transaction.\n    // The transaction details are added to the transactions array and emitted through the Submit event.\n    function submit(address _to, uint _value, bytes memory _data) external onlyOwner {\n        transactions.push(Transaction({\n            to: _to,\n            value: _value,\n            data: _data,\n            executed: false\n        }));\n\n            emit Submit(transactions.length - 1);\n\n    }\n\n    // This function allows an owner to approve a transaction.\n    // The confirmations mapping is updated with the owner's approval and emitted through the Approve event.\n    function approve(uint _txId) external onlyOwner txExists(_txId) notExecuted(_txId) notApproved(_txId) {\n        confirmations[_txId][msg.sender] = true;\n        emit Approve(msg.sender, _txId);    \n    }\n    // This function is a helper function to get the number of confirmations for a given transaction.\n    function _getConfirmationCount(uint _txId) private view returns (uint) {\n        uint count = 0;\n        for (uint i = 0; i < owners.length; i++) {\n            if (confirmations[_txId][owners[i]]) {\n                count += 1;\n            }\n        }\n        return count;\n\n\n    }\n    // This function allows the contract owner to execute a transaction once the required number of approvals is reached.\n    // The transaction is marked as executed and the transaction details are sent to the recipient through a call.\n    // An Execute event is emitted with the transaction ID.\n    function execute(uint _txId) external onlyOwner txExists(_txId) notExecuted(_txId) {\n        require(_getConfirmationCount(_txId) >= required, \"cannot execute tx\");\n\n        Transaction storage transaction = transactions[_txId];\n        transaction.executed = true;\n\n        (bool success, ) = transaction.to.call{value: transaction.value}(transaction.data);\n        require(success, \"tx failed\");\n\n        emit Execute(_txId);\n    }\n    // This function allows the contract owner to revoke their approval of a transaction.\n    // The confirmations mapping is updated with the owner's revocation and emitted through the Revoke event.\n    function revoke(uint _txId) external onlyOwner txExists(_txId) notExecuted(_txId) {\n        require(confirmations[_txId][msg.sender], \"tx not approved\");\n\n        confirmations[_txId][msg.sender] = false;\n\n        emit Revoke(msg.sender, _txId);\n    }\n\n\n}",
  "sourcePath": "/home/joedakwa/joe/multi-sig/contracts/MultiSigWallet.sol",
  "compiler": {
    "name": "solc",
    "version": "0.8.17+commit.8df45f5f.Emscripten.clang"
  },
  "schemaVersion": "3.4.10",
  "updatedAt": "2023-05-15T15:55:58.194Z",
  "devdoc": {
    "kind": "dev",
    "methods": {},
    "version": 1
  },
  "userdoc": {
    "kind": "user",
    "methods": {},
    "version": 1
  }
}