{
  "contractName": "MultiSigWallet",
  "abi": [
    {
      "inputs": [
        {
          "internalType": "address[]",
          "name": "_owners",
          "type": "address[]"
        },
        {
          "internalType": "uint256",
          "name": "_required",
          "type": "uint256"
        }
      ],
      "stateMutability": "nonpayable",
      "type": "constructor"
    },
    {
      "anonymous": false,
      "inputs": [
        {
          "indexed": true,
          "internalType": "address",
          "name": "owner",
          "type": "address"
        },
        {
          "indexed": true,
          "internalType": "uint256",
          "name": "txId",
          "type": "uint256"
        }
      ],
      "name": "Approve",
      "type": "event"
    },
    {
      "anonymous": false,
      "inputs": [
        {
          "indexed": true,
          "internalType": "address",
          "name": "sender",
          "type": "address"
        },
        {
          "indexed": false,
          "internalType": "uint256",
          "name": "amount",
          "type": "uint256"
        },
        {
          "indexed": false,
          "internalType": "uint256",
          "name": "balance",
          "type": "uint256"
        }
      ],
      "name": "Deposit",
      "type": "event"
    },
    {
      "anonymous": false,
      "inputs": [
        {
          "indexed": true,
          "internalType": "address",
          "name": "owner",
          "type": "address"
        },
        {
          "indexed": true,
          "internalType": "uint256",
          "name": "txId",
          "type": "uint256"
        }
      ],
      "name": "Execute",
      "type": "event"
    },
    {
      "anonymous": false,
      "inputs": [
        {
          "indexed": true,
          "internalType": "address",
          "name": "owner",
          "type": "address"
        },
        {
          "indexed": true,
          "internalType": "uint256",
          "name": "txId",
          "type": "uint256"
        }
      ],
      "name": "Revoke",
      "type": "event"
    },
    {
      "anonymous": false,
      "inputs": [
        {
          "indexed": true,
          "internalType": "address",
          "name": "owner",
          "type": "address"
        },
        {
          "indexed": true,
          "internalType": "uint256",
          "name": "txId",
          "type": "uint256"
        },
        {
          "indexed": true,
          "internalType": "address",
          "name": "to",
          "type": "address"
        },
        {
          "indexed": false,
          "internalType": "uint256",
          "name": "value",
          "type": "uint256"
        },
        {
          "indexed": false,
          "internalType": "bytes",
          "name": "data",
          "type": "bytes"
        }
      ],
      "name": "Submit",
      "type": "event"
    },
    {
      "inputs": [
        {
          "internalType": "uint256",
          "name": "",
          "type": "uint256"
        },
        {
          "internalType": "address",
          "name": "",
          "type": "address"
        }
      ],
      "name": "confirmations",
      "outputs": [
        {
          "internalType": "bool",
          "name": "",
          "type": "bool"
        }
      ],
      "stateMutability": "view",
      "type": "function"
    },
    {
      "inputs": [
        {
          "internalType": "address",
          "name": "",
          "type": "address"
        }
      ],
      "name": "isOwner",
      "outputs": [
        {
          "internalType": "bool",
          "name": "",
          "type": "bool"
        }
      ],
      "stateMutability": "view",
      "type": "function"
    },
    {
      "inputs": [
        {
          "internalType": "uint256",
          "name": "",
          "type": "uint256"
        }
      ],
      "name": "owners",
      "outputs": [
        {
          "internalType": "address",
          "name": "",
          "type": "address"
        }
      ],
      "stateMutability": "view",
      "type": "function"
    },
    {
      "inputs": [],
      "name": "required",
      "outputs": [
        {
          "internalType": "uint256",
          "name": "",
          "type": "uint256"
        }
      ],
      "stateMutability": "view",
      "type": "function"
    },
    {
      "inputs": [
        {
          "internalType": "uint256",
          "name": "",
          "type": "uint256"
        }
      ],
      "name": "transactions",
      "outputs": [
        {
          "internalType": "address",
          "name": "to",
          "type": "address"
        },
        {
          "internalType": "uint256",
          "name": "value",
          "type": "uint256"
        },
        {
          "internalType": "bytes",
          "name": "data",
          "type": "bytes"
        },
        {
          "internalType": "bool",
          "name": "executed",
          "type": "bool"
        },
        {
          "internalType": "uint256",
          "name": "numConfirmations",
          "type": "uint256"
        }
      ],
      "stateMutability": "view",
      "type": "function"
    },
    {
      "stateMutability": "payable",
      "type": "receive"
    },
    {
      "inputs": [],
      "name": "deposit",
      "outputs": [],
      "stateMutability": "payable",
      "type": "function"
    },
    {
      "inputs": [
        {
          "internalType": "address",
          "name": "_to",
          "type": "address"
        },
        {
          "internalType": "uint256",
          "name": "_value",
          "type": "uint256"
        },
        {
          "internalType": "bytes",
          "name": "_data",
          "type": "bytes"
        }
      ],
      "name": "submit",
      "outputs": [],
      "stateMutability": "nonpayable",
      "type": "function"
    },
    {
      "inputs": [
        {
          "internalType": "uint256",
          "name": "_txId",
          "type": "uint256"
        }
      ],
      "name": "approve",
      "outputs": [],
      "stateMutability": "nonpayable",
      "type": "function"
    },
    {
      "inputs": [
        {
          "internalType": "uint256",
          "name": "_txId",
          "type": "uint256"
        }
      ],
      "name": "execute",
      "outputs": [],
      "stateMutability": "nonpayable",
      "type": "function"
    },
    {
      "inputs": [
        {
          "internalType": "uint256",
          "name": "_txId",
          "type": "uint256"
        }
      ],
      "name": "revoke",
      "outputs": [],
      "stateMutability": "nonpayable",
      "type": "function"
    }
  ],
  "bytecode": "0x60806040523480156200001157600080fd5b50604051620023423803806200234283398181016040528101906200003791906200050d565b60008251116200007e576040517f08c379a00000000000000000000000000000000000000000000000000000000081526004016200007590620005d4565b60405180910390fd5b60008111801562000090575081518111155b620000d2576040517f08c379a0000000000000000000000000000000000000000000000000000000008152600401620000c9906200066c565b60405180910390fd5b60005b8251811015620002d4576000838281518110620000f757620000f66200068e565b5b60200260200101519050600073ffffffffffffffffffffffffffffffffffffffff168173ffffffffffffffffffffffffffffffffffffffff160362000173576040517f08c379a00000000000000000000000000000000000000000000000000000000081526004016200016a906200070d565b60405180910390fd5b600160008273ffffffffffffffffffffffffffffffffffffffff1673ffffffffffffffffffffffffffffffffffffffff16815260200190815260200160002060009054906101000a900460ff161562000203576040517f08c379a0000000000000000000000000000000000000000000000000000000008152600401620001fa906200077f565b60405180910390fd5b60018060008373ffffffffffffffffffffffffffffffffffffffff1673ffffffffffffffffffffffffffffffffffffffff16815260200190815260200160002060006101000a81548160ff0219169083151502179055506000819080600181540180825580915050600190039060005260206000200160009091909190916101000a81548173ffffffffffffffffffffffffffffffffffffffff021916908373ffffffffffffffffffffffffffffffffffffffff160217905550508080620002cb90620007d0565b915050620000d5565b508060028190555050506200081d565b6000604051905090565b600080fd5b600080fd5b600080fd5b6000601f19601f8301169050919050565b7f4e487b7100000000000000000000000000000000000000000000000000000000600052604160045260246000fd5b6200034882620002fd565b810181811067ffffffffffffffff821117156200036a57620003696200030e565b5b80604052505050565b60006200037f620002e4565b90506200038d82826200033d565b919050565b600067ffffffffffffffff821115620003b057620003af6200030e565b5b602082029050602081019050919050565b600080fd5b600073ffffffffffffffffffffffffffffffffffffffff82169050919050565b6000620003f382620003c6565b9050919050565b6200040581620003e6565b81146200041157600080fd5b50565b6000815190506200042581620003fa565b92915050565b6000620004426200043c8462000392565b62000373565b90508083825260208201905060208402830185811115620004685762000467620003c1565b5b835b8181101562000495578062000480888262000414565b8452602084019350506020810190506200046a565b5050509392505050565b600082601f830112620004b757620004b6620002f8565b5b8151620004c98482602086016200042b565b91505092915050565b6000819050919050565b620004e781620004d2565b8114620004f357600080fd5b50565b6000815190506200050781620004dc565b92915050565b60008060408385031215620005275762000526620002ee565b5b600083015167ffffffffffffffff811115620005485762000547620002f3565b5b62000556858286016200049f565b92505060206200056985828601620004f6565b9150509250929050565b600082825260208201905092915050565b7f6f776e6572732072657175697265640000000000000000000000000000000000600082015250565b6000620005bc600f8362000573565b9150620005c98262000584565b602082019050919050565b60006020820190508181036000830152620005ef81620005ad565b9050919050565b7f696e76616c6964206e756d626572206f6620726571756972656420636f6e666960008201527f726d6174696f6e73000000000000000000000000000000000000000000000000602082015250565b60006200065460288362000573565b91506200066182620005f6565b604082019050919050565b60006020820190508181036000830152620006878162000645565b9050919050565b7f4e487b7100000000000000000000000000000000000000000000000000000000600052603260045260246000fd5b7f696e76616c6964206f776e657200000000000000000000000000000000000000600082015250565b6000620006f5600d8362000573565b91506200070282620006bd565b602082019050919050565b600060208201905081810360008301526200072881620006e6565b9050919050565b7f6f776e6572206e6f7420756e6971756500000000000000000000000000000000600082015250565b60006200076760108362000573565b915062000774826200072f565b602082019050919050565b600060208201905081810360008301526200079a8162000758565b9050919050565b7f4e487b7100000000000000000000000000000000000000000000000000000000600052601160045260246000fd5b6000620007dd82620004d2565b91507fffffffffffffffffffffffffffffffffffffffffffffffffffffffffffffffff8203620008125762000811620007a1565b5b600182019050919050565b611b15806200082d6000396000f3fe6080604052600436106100955760003560e01c80639ace38c2116100595780639ace38c2146101fa578063b759f9541461023b578063d0e30db014610264578063dc8452cd1461026e578063fe0d94c114610299576100ec565b8063025e7c27146100f157806314de327f1461012e57806320c5429b146101575780632f54bf6e146101805780633411c81c146101bd576100ec565b366100ec573373ffffffffffffffffffffffffffffffffffffffff167f90890809c654f11d6e72a28fa60149770a0d11ec6c92319d6ceb2bb0a4ea1a1534476040516100e2929190610f2b565b60405180910390a2005b600080fd5b3480156100fd57600080fd5b5061011860048036038101906101139190610f94565b6102c2565b6040516101259190611002565b60405180910390f35b34801561013a57600080fd5b506101556004803603810190610150919061118f565b610301565b005b34801561016357600080fd5b5061017e60048036038101906101799190610f94565b610504565b005b34801561018c57600080fd5b506101a760048036038101906101a291906111fe565b61079b565b6040516101b49190611246565b60405180910390f35b3480156101c957600080fd5b506101e460048036038101906101df9190611261565b6107bb565b6040516101f19190611246565b60405180910390f35b34801561020657600080fd5b50610221600480360381019061021c9190610f94565b6107ea565b604051610232959493929190611320565b60405180910390f35b34801561024757600080fd5b50610262600480360381019061025d9190610f94565b6108e5565b005b61026c610bc2565b005b34801561027a57600080fd5b50610283610c14565b604051610290919061137a565b60405180910390f35b3480156102a557600080fd5b506102c060048036038101906102bb9190610f94565b610c1a565b005b600081815481106102d257600080fd5b906000526020600020016000915054906101000a900473ffffffffffffffffffffffffffffffffffffffff1681565b600160003373ffffffffffffffffffffffffffffffffffffffff1673ffffffffffffffffffffffffffffffffffffffff16815260200190815260200160002060009054906101000a900460ff1661038d576040517f08c379a0000000000000000000000000000000000000000000000000000000008152600401610384906113f2565b60405180910390fd5b6000600380549050905060036040518060a001604052808673ffffffffffffffffffffffffffffffffffffffff1681526020018581526020018481526020016000151581526020016000815250908060018154018082558091505060019003906000526020600020906005020160009091909190915060008201518160000160006101000a81548173ffffffffffffffffffffffffffffffffffffffff021916908373ffffffffffffffffffffffffffffffffffffffff160217905550602082015181600101556040820151816002019081610469919061161e565b5060608201518160030160006101000a81548160ff0219169083151502179055506080820151816004015550508373ffffffffffffffffffffffffffffffffffffffff16813373ffffffffffffffffffffffffffffffffffffffff167fae88b418f2b5e7c7e4a839d4244a762f0552c731cb27e637651304317491b10786866040516104f69291906116f0565b60405180910390a450505050565b600160003373ffffffffffffffffffffffffffffffffffffffff1673ffffffffffffffffffffffffffffffffffffffff16815260200190815260200160002060009054906101000a900460ff16610590576040517f08c379a0000000000000000000000000000000000000000000000000000000008152600401610587906113f2565b60405180910390fd5b8060038054905081106105d8576040517f08c379a00000000000000000000000000000000000000000000000000000000081526004016105cf9061176c565b60405180910390fd5b81600381815481106105ed576105ec61178c565b5b906000526020600020906005020160030160009054906101000a900460ff161561064c576040517f08c379a000000000000000000000000000000000000000000000000000000000815260040161064390611807565b60405180910390fd5b6004600084815260200190815260200160002060003373ffffffffffffffffffffffffffffffffffffffff1673ffffffffffffffffffffffffffffffffffffffff16815260200190815260200160002060009054906101000a900460ff166106e9576040517f08c379a00000000000000000000000000000000000000000000000000000000081526004016106e090611873565b60405180910390fd5b60006004600085815260200190815260200160002060003373ffffffffffffffffffffffffffffffffffffffff1673ffffffffffffffffffffffffffffffffffffffff16815260200190815260200160002060006101000a81548160ff021916908315150217905550823373ffffffffffffffffffffffffffffffffffffffff167fec9ab91322523c899ede7830ec9bfc992b5981cdcc27b91162fb23de5791117b60405160405180910390a3505050565b60016020528060005260406000206000915054906101000a900460ff1681565b60046020528160005260406000206020528060005260406000206000915091509054906101000a900460ff1681565b600381815481106107fa57600080fd5b90600052602060002090600502016000915090508060000160009054906101000a900473ffffffffffffffffffffffffffffffffffffffff169080600101549080600201805461084990611441565b80601f016020809104026020016040519081016040528092919081815260200182805461087590611441565b80156108c25780601f10610897576101008083540402835291602001916108c2565b820191906000526020600020905b8154815290600101906020018083116108a557829003601f168201915b5050505050908060030160009054906101000a900460ff16908060040154905085565b600160003373ffffffffffffffffffffffffffffffffffffffff1673ffffffffffffffffffffffffffffffffffffffff16815260200190815260200160002060009054906101000a900460ff16610971576040517f08c379a0000000000000000000000000000000000000000000000000000000008152600401610968906113f2565b60405180910390fd5b8060038054905081106109b9576040517f08c379a00000000000000000000000000000000000000000000000000000000081526004016109b09061176c565b60405180910390fd5b81600381815481106109ce576109cd61178c565b5b906000526020600020906005020160030160009054906101000a900460ff1615610a2d576040517f08c379a0000000000000000000000000000000000000000000000000000000008152600401610a2490611807565b60405180910390fd5b826004600082815260200190815260200160002060003373ffffffffffffffffffffffffffffffffffffffff1673ffffffffffffffffffffffffffffffffffffffff16815260200190815260200160002060009054906101000a900460ff1615610acc576040517f08c379a0000000000000000000000000000000000000000000000000000000008152600401610ac3906118df565b60405180910390fd5b600060038581548110610ae257610ae161178c565b5b9060005260206000209060050201905060016004600087815260200190815260200160002060003373ffffffffffffffffffffffffffffffffffffffff1673ffffffffffffffffffffffffffffffffffffffff16815260200190815260200160002060006101000a81548160ff0219169083151502179055506001816004016000828254610b70919061192e565b92505081905550843373ffffffffffffffffffffffffffffffffffffffff167f90ec57f18fa7b15c6b8d5e4d1deb90796c74b2ff23d4d0cecad0cb42a96b312860405160405180910390a35050505050565b3373ffffffffffffffffffffffffffffffffffffffff167f90890809c654f11d6e72a28fa60149770a0d11ec6c92319d6ceb2bb0a4ea1a153447604051610c0a929190610f2b565b60405180910390a2565b60025481565b600160003373ffffffffffffffffffffffffffffffffffffffff1673ffffffffffffffffffffffffffffffffffffffff16815260200190815260200160002060009054906101000a900460ff16610ca6576040517f08c379a0000000000000000000000000000000000000000000000000000000008152600401610c9d906113f2565b60405180910390fd5b806003805490508110610cee576040517f08c379a0000000000000000000000000000000000000000000000000000000008152600401610ce59061176c565b60405180910390fd5b8160038181548110610d0357610d0261178c565b5b906000526020600020906005020160030160009054906101000a900460ff1615610d62576040517f08c379a0000000000000000000000000000000000000000000000000000000008152600401610d5990611807565b60405180910390fd5b600060038481548110610d7857610d7761178c565b5b9060005260206000209060050201905060025481600401541015610dd1576040517f08c379a0000000000000000000000000000000000000000000000000000000008152600401610dc8906119ae565b60405180910390fd5b60018160030160006101000a81548160ff02191690831515021790555060008160000160009054906101000a900473ffffffffffffffffffffffffffffffffffffffff1673ffffffffffffffffffffffffffffffffffffffff16826001015483600201604051610e419190611a5c565b60006040518083038185875af1925050503d8060008114610e7e576040519150601f19603f3d011682016040523d82523d6000602084013e610e83565b606091505b5050905080610ec7576040517f08c379a0000000000000000000000000000000000000000000000000000000008152600401610ebe90611abf565b60405180910390fd5b843373ffffffffffffffffffffffffffffffffffffffff167f892cd8f5b436bd5fb7dac1f11aafb73345d892ba3e9fe09cd94d95ba84928e7360405160405180910390a35050505050565b6000819050919050565b610f2581610f12565b82525050565b6000604082019050610f406000830185610f1c565b610f4d6020830184610f1c565b9392505050565b6000604051905090565b600080fd5b600080fd5b610f7181610f12565b8114610f7c57600080fd5b50565b600081359050610f8e81610f68565b92915050565b600060208284031215610faa57610fa9610f5e565b5b6000610fb884828501610f7f565b91505092915050565b600073ffffffffffffffffffffffffffffffffffffffff82169050919050565b6000610fec82610fc1565b9050919050565b610ffc81610fe1565b82525050565b60006020820190506110176000830184610ff3565b92915050565b61102681610fe1565b811461103157600080fd5b50565b6000813590506110438161101d565b92915050565b600080fd5b600080fd5b6000601f19601f8301169050919050565b7f4e487b7100000000000000000000000000000000000000000000000000000000600052604160045260246000fd5b61109c82611053565b810181811067ffffffffffffffff821117156110bb576110ba611064565b5b80604052505050565b60006110ce610f54565b90506110da8282611093565b919050565b600067ffffffffffffffff8211156110fa576110f9611064565b5b61110382611053565b9050602081019050919050565b82818337600083830152505050565b600061113261112d846110df565b6110c4565b90508281526020810184848401111561114e5761114d61104e565b5b611159848285611110565b509392505050565b600082601f83011261117657611175611049565b5b813561118684826020860161111f565b91505092915050565b6000806000606084860312156111a8576111a7610f5e565b5b60006111b686828701611034565b93505060206111c786828701610f7f565b925050604084013567ffffffffffffffff8111156111e8576111e7610f63565b5b6111f486828701611161565b9150509250925092565b60006020828403121561121457611213610f5e565b5b600061122284828501611034565b91505092915050565b60008115159050919050565b6112408161122b565b82525050565b600060208201905061125b6000830184611237565b92915050565b6000806040838503121561127857611277610f5e565b5b600061128685828601610f7f565b925050602061129785828601611034565b9150509250929050565b600081519050919050565b600082825260208201905092915050565b60005b838110156112db5780820151818401526020810190506112c0565b60008484015250505050565b60006112f2826112a1565b6112fc81856112ac565b935061130c8185602086016112bd565b61131581611053565b840191505092915050565b600060a0820190506113356000830188610ff3565b6113426020830187610f1c565b818103604083015261135481866112e7565b90506113636060830185611237565b6113706080830184610f1c565b9695505050505050565b600060208201905061138f6000830184610f1c565b92915050565b600082825260208201905092915050565b7f6e6f74206f776e65720000000000000000000000000000000000000000000000600082015250565b60006113dc600983611395565b91506113e7826113a6565b602082019050919050565b6000602082019050818103600083015261140b816113cf565b9050919050565b7f4e487b7100000000000000000000000000000000000000000000000000000000600052602260045260246000fd5b6000600282049050600182168061145957607f821691505b60208210810361146c5761146b611412565b5b50919050565b60008190508160005260206000209050919050565b60006020601f8301049050919050565b600082821b905092915050565b6000600883026114d47fffffffffffffffffffffffffffffffffffffffffffffffffffffffffffffffff82611497565b6114de8683611497565b95508019841693508086168417925050509392505050565b6000819050919050565b600061151b61151661151184610f12565b6114f6565b610f12565b9050919050565b6000819050919050565b61153583611500565b61154961154182611522565b8484546114a4565b825550505050565b600090565b61155e611551565b61156981848461152c565b505050565b5b8181101561158d57611582600082611556565b60018101905061156f565b5050565b601f8211156115d2576115a381611472565b6115ac84611487565b810160208510156115bb578190505b6115cf6115c785611487565b83018261156e565b50505b505050565b600082821c905092915050565b60006115f5600019846008026115d7565b1980831691505092915050565b600061160e83836115e4565b9150826002028217905092915050565b611627826112a1565b67ffffffffffffffff8111156116405761163f611064565b5b61164a8254611441565b611655828285611591565b600060209050601f8311600181146116885760008415611676578287015190505b6116808582611602565b8655506116e8565b601f19841661169686611472565b60005b828110156116be57848901518255600182019150602085019450602081019050611699565b868310156116db57848901516116d7601f8916826115e4565b8355505b6001600288020188555050505b505050505050565b60006040820190506117056000830185610f1c565b818103602083015261171781846112e7565b90509392505050565b7f747820646f6573206e6f74206578697374000000000000000000000000000000600082015250565b6000611756601183611395565b915061176182611720565b602082019050919050565b6000602082019050818103600083015261178581611749565b9050919050565b7f4e487b7100000000000000000000000000000000000000000000000000000000600052603260045260246000fd5b7f747820616c726561647920657865637574656400000000000000000000000000600082015250565b60006117f1601383611395565b91506117fc826117bb565b602082019050919050565b60006020820190508181036000830152611820816117e4565b9050919050565b7f7478206e6f7420617070726f7665640000000000000000000000000000000000600082015250565b600061185d600f83611395565b915061186882611827565b602082019050919050565b6000602082019050818103600083015261188c81611850565b9050919050565b7f747820616c726561647920617070726f76656400000000000000000000000000600082015250565b60006118c9601383611395565b91506118d482611893565b602082019050919050565b600060208201905081810360008301526118f8816118bc565b9050919050565b7f4e487b7100000000000000000000000000000000000000000000000000000000600052601160045260246000fd5b600061193982610f12565b915061194483610f12565b925082820190508082111561195c5761195b6118ff565b5b92915050565b7f63616e6e6f742065786563757465207478000000000000000000000000000000600082015250565b6000611998601183611395565b91506119a382611962565b602082019050919050565b600060208201905081810360008301526119c78161198b565b9050919050565b600081905092915050565b600081546119e681611441565b6119f081866119ce565b94506001821660008114611a0b5760018114611a2057611a53565b60ff1983168652811515820286019350611a53565b611a2985611472565b60005b83811015611a4b57815481890152600182019150602081019050611a2c565b838801955050505b50505092915050565b6000611a6882846119d9565b915081905092915050565b7f7478206661696c65640000000000000000000000000000000000000000000000600082015250565b6000611aa9600983611395565b9150611ab482611a73565b602082019050919050565b60006020820190508181036000830152611ad881611a9c565b905091905056fea26469706673582212202bed3fec2a531521f8454ed0572aa63bd64a2f5cff86f91fdfa896e68c61343964736f6c63430008110033",
  "immutableReferences": {},
  "source": "// SPDX-License-Identifier: MIT\npragma solidity ^0.8.0;\n\ncontract MultiSigWallet {\n    // Event emitted when a deposit is made to the contract\n    event Deposit(address indexed sender, uint amount, uint balance);\n\n    // Event emitted when a transaction is submitted\n    event Submit(address indexed owner, uint indexed txId, address indexed to, uint value, bytes data);\n\n    // Event emitted when an owner approves a transaction\n    event Approve(address indexed owner, uint indexed txId);\n\n    // Event emitted when an owner revokes their approval of a transaction\n    event Revoke(address indexed owner, uint indexed txId);\n\n    // Event emitted when a transaction is executed\n    event Execute(address indexed owner, uint indexed txId);\n\n    // Represent a transaction\n    struct Transaction {\n        address to;\n        uint value;\n        bytes data;\n        bool executed;\n        uint numConfirmations;\n    }\n\n    // Store the addresses of the owners of the wallet\n    address[] public owners; \n    // Mapping to keep track of which addresses are owners of the wallet\n    mapping(address => bool) public isOwner; \n    // The number of required confirmations for a transaction to be executed\n    uint public required;  \n\n    // Store all of the transactions submitted to the wallet\n    Transaction[] public transactions; \n    // Mapping to keep track of which owners have approved each transaction\n    mapping(uint => mapping(address => bool)) public confirmations;   \n\n    // checks whether the caller of the function is the owner\n    modifier onlyOwner() {\n        require(isOwner[msg.sender], \"not owner\");\n        _;\n    }\n    // checks whether a transaction with a given ID exists\n    modifier txExists(uint _txId) {\n        require(_txId < transactions.length, \"tx does not exist\");\n        _;\n    }\n    // checks whether a transaction with a given ID has not been executed\n    modifier notExecuted(uint _txId) {\n        require(!transactions[_txId].executed, \"tx already executed\");\n        _;\n    }\n    // checks whether a transaction with a given ID has not been approved by the caller of the function\n    modifier notApproved(uint _txId) {\n        require(!confirmations[_txId][msg.sender], \"tx already approved\");\n        _;\n    }\n\n\n    constructor(address[] memory _owners, uint _required) {\n        require(_owners.length > 0, \"owners required\");\n        require(_required > 0 && _required <= _owners.length, \"invalid number of required confirmations\");\n\n        for (uint i = 0; i < _owners.length; i++) {\n            address owner = _owners[i];\n\n            require(owner != address(0), \"invalid owner\");\n            require(!isOwner[owner], \"owner not unique\");\n\n            isOwner[owner] = true;\n            owners.push(owner);\n        }\n\n        required = _required;\n    }\n\n    // Function that allows the contract to receive ETH\n    receive() external payable {\n        emit Deposit(msg.sender, msg.value, address(this).balance);\n    }\n\n    function deposit() external payable {\n        emit Deposit(msg.sender, msg.value, address(this).balance);\n    }\n    // use callData for cheaper gas fees\n    // This function allows the contract owner to submit a new transaction.\n    // The transaction details are added to the transactions array and emitted through the Submit event.\n    function submit(address _to, uint _value, bytes memory _data) external onlyOwner {\n        \n        uint txId = transactions.length;\n\n        transactions.push(Transaction({\n            to: _to,\n            value: _value,\n            data: _data,\n            numConfirmations: 0,\n            executed: false\n        }));\n\n            emit Submit(msg.sender, txId, _to, _value, _data);\n\n    }\n\n    // This function allows an owner to approve a transaction.\n    // The confirmations mapping is updated with the owner's approval and emitted through the Approve event.\n    function approve(uint _txId) external onlyOwner txExists(_txId) notExecuted(_txId) notApproved(_txId) {\n\n        Transaction storage transaction = transactions[_txId];\n\n\n        confirmations[_txId][msg.sender] = true;\n        // transaction.isApproved[msg.sender] = true;\n        transaction.numConfirmations += 1;\n\n        emit Approve(msg.sender, _txId);    \n    }\n    // This function is a helper function to get the number of confirmations for a given transaction.\n    // function _getConfirmationCount(uint _txId) private view returns (uint) {\n    //     uint count = 0;\n    //     for (uint i = 0; i < owners.length; i++) {\n    //         if (confirmations[_txId][owners[i]]) {\n    //             count += 1;\n    //         }\n    //     }\n    //     return count;\n\n\n    // }\n    // This function allows the contract owner to execute a transaction once the required number of approvals is reached.\n    // The transaction is marked as executed and the transaction details are sent to the recipient through a call.\n    // An Execute event is emitted with the transaction ID.\n    function execute(uint _txId) external onlyOwner txExists(_txId) notExecuted(_txId) {\n        // require(_getConfirmationCount(_txId) >= required, \"cannot execute tx\");\n\n        Transaction storage transaction = transactions[_txId];\n         \n        require(transaction.numConfirmations >= required, \"cannot execute tx\");\n        transaction.executed = true;\n\n        (bool success, ) = transaction.to.call{value: transaction.value}(transaction.data);\n        require(success, \"tx failed\");\n\n        emit Execute(msg.sender, _txId);\n    }\n    // This function allows the contract owner to revoke their approval of a transaction.\n    // The confirmations mapping is updated with the owner's revocation and emitted through the Revoke event.\n    function revoke(uint _txId) external onlyOwner txExists(_txId) notExecuted(_txId) {\n        require(confirmations[_txId][msg.sender], \"tx not approved\");\n\n        confirmations[_txId][msg.sender] = false;\n\n        emit Revoke(msg.sender, _txId);\n    }\n\n\n}",
  "sourcePath": "/home/joedakwa/joe/multi-sig/contracts/MultiSigWallet.sol",
  "compiler": {
    "name": "solc",
    "version": "0.8.17+commit.8df45f5f.Emscripten.clang"
  },
  "schemaVersion": "3.4.10",
  "updatedAt": "2023-05-15T21:22:04.134Z",
  "devdoc": {
    "kind": "dev",
    "methods": {},
    "version": 1
  },
  "userdoc": {
    "kind": "user",
    "methods": {},
    "version": 1
  }
}