{
  "contractName": "MultiSigWallet",
  "abi": [
    {
      "inputs": [
        {
          "internalType": "address[]",
          "name": "_owners",
          "type": "address[]"
        },
        {
          "internalType": "uint256",
          "name": "_required",
          "type": "uint256"
        }
      ],
      "stateMutability": "nonpayable",
      "type": "constructor"
    },
    {
      "anonymous": false,
      "inputs": [
        {
          "indexed": true,
          "internalType": "address",
          "name": "owner",
          "type": "address"
        },
        {
          "indexed": true,
          "internalType": "uint256",
          "name": "txId",
          "type": "uint256"
        }
      ],
      "name": "Approve",
      "type": "event"
    },
    {
      "anonymous": false,
      "inputs": [
        {
          "indexed": true,
          "internalType": "address",
          "name": "sender",
          "type": "address"
        },
        {
          "indexed": false,
          "internalType": "uint256",
          "name": "amount",
          "type": "uint256"
        },
        {
          "indexed": false,
          "internalType": "uint256",
          "name": "balance",
          "type": "uint256"
        }
      ],
      "name": "Deposit",
      "type": "event"
    },
    {
      "anonymous": false,
      "inputs": [
        {
          "indexed": true,
          "internalType": "address",
          "name": "owner",
          "type": "address"
        },
        {
          "indexed": true,
          "internalType": "uint256",
          "name": "txId",
          "type": "uint256"
        }
      ],
      "name": "Execute",
      "type": "event"
    },
    {
      "anonymous": false,
      "inputs": [
        {
          "indexed": true,
          "internalType": "address",
          "name": "owner",
          "type": "address"
        },
        {
          "indexed": true,
          "internalType": "uint256",
          "name": "txId",
          "type": "uint256"
        }
      ],
      "name": "Revoke",
      "type": "event"
    },
    {
      "anonymous": false,
      "inputs": [
        {
          "indexed": true,
          "internalType": "address",
          "name": "owner",
          "type": "address"
        },
        {
          "indexed": true,
          "internalType": "uint256",
          "name": "txId",
          "type": "uint256"
        },
        {
          "indexed": true,
          "internalType": "address",
          "name": "to",
          "type": "address"
        },
        {
          "indexed": false,
          "internalType": "uint256",
          "name": "value",
          "type": "uint256"
        },
        {
          "indexed": false,
          "internalType": "bytes",
          "name": "data",
          "type": "bytes"
        }
      ],
      "name": "Submit",
      "type": "event"
    },
    {
      "inputs": [
        {
          "internalType": "uint256",
          "name": "",
          "type": "uint256"
        },
        {
          "internalType": "address",
          "name": "",
          "type": "address"
        }
      ],
      "name": "confirmations",
      "outputs": [
        {
          "internalType": "bool",
          "name": "",
          "type": "bool"
        }
      ],
      "stateMutability": "view",
      "type": "function"
    },
    {
      "inputs": [
        {
          "internalType": "address",
          "name": "",
          "type": "address"
        }
      ],
      "name": "isOwner",
      "outputs": [
        {
          "internalType": "bool",
          "name": "",
          "type": "bool"
        }
      ],
      "stateMutability": "view",
      "type": "function"
    },
    {
      "inputs": [
        {
          "internalType": "uint256",
          "name": "",
          "type": "uint256"
        }
      ],
      "name": "owners",
      "outputs": [
        {
          "internalType": "address",
          "name": "",
          "type": "address"
        }
      ],
      "stateMutability": "view",
      "type": "function"
    },
    {
      "inputs": [],
      "name": "required",
      "outputs": [
        {
          "internalType": "uint256",
          "name": "",
          "type": "uint256"
        }
      ],
      "stateMutability": "view",
      "type": "function"
    },
    {
      "inputs": [
        {
          "internalType": "uint256",
          "name": "",
          "type": "uint256"
        }
      ],
      "name": "transactions",
      "outputs": [
        {
          "internalType": "address",
          "name": "to",
          "type": "address"
        },
        {
          "internalType": "uint256",
          "name": "value",
          "type": "uint256"
        },
        {
          "internalType": "bytes",
          "name": "data",
          "type": "bytes"
        },
        {
          "internalType": "bool",
          "name": "executed",
          "type": "bool"
        },
        {
          "internalType": "uint256",
          "name": "numConfirmations",
          "type": "uint256"
        }
      ],
      "stateMutability": "view",
      "type": "function"
    },
    {
      "stateMutability": "payable",
      "type": "receive"
    },
    {
      "inputs": [],
      "name": "deposit",
      "outputs": [],
      "stateMutability": "payable",
      "type": "function"
    },
    {
      "inputs": [
        {
          "internalType": "address",
          "name": "_to",
          "type": "address"
        },
        {
          "internalType": "uint256",
          "name": "_value",
          "type": "uint256"
        },
        {
          "internalType": "bytes",
          "name": "_data",
          "type": "bytes"
        }
      ],
      "name": "submit",
      "outputs": [],
      "stateMutability": "nonpayable",
      "type": "function"
    },
    {
      "inputs": [
        {
          "internalType": "uint256",
          "name": "_txId",
          "type": "uint256"
        }
      ],
      "name": "approve",
      "outputs": [],
      "stateMutability": "nonpayable",
      "type": "function"
    },
    {
      "inputs": [
        {
          "internalType": "uint256",
          "name": "_txId",
          "type": "uint256"
        }
      ],
      "name": "getTransaction",
      "outputs": [
        {
          "internalType": "address",
          "name": "to",
          "type": "address"
        },
        {
          "internalType": "uint256",
          "name": "value",
          "type": "uint256"
        },
        {
          "internalType": "bytes",
          "name": "data",
          "type": "bytes"
        },
        {
          "internalType": "bool",
          "name": "executed",
          "type": "bool"
        },
        {
          "internalType": "uint256",
          "name": "numConfirmations",
          "type": "uint256"
        }
      ],
      "stateMutability": "view",
      "type": "function"
    },
    {
      "inputs": [],
      "name": "getTransactionCount",
      "outputs": [
        {
          "internalType": "uint256",
          "name": "",
          "type": "uint256"
        }
      ],
      "stateMutability": "view",
      "type": "function"
    },
    {
      "inputs": [],
      "name": "getOwners",
      "outputs": [
        {
          "internalType": "address[]",
          "name": "",
          "type": "address[]"
        }
      ],
      "stateMutability": "view",
      "type": "function"
    },
    {
      "inputs": [
        {
          "internalType": "uint256",
          "name": "_txId",
          "type": "uint256"
        }
      ],
      "name": "execute",
      "outputs": [],
      "stateMutability": "nonpayable",
      "type": "function"
    },
    {
      "inputs": [
        {
          "internalType": "uint256",
          "name": "_txId",
          "type": "uint256"
        }
      ],
      "name": "revoke",
      "outputs": [],
      "stateMutability": "nonpayable",
      "type": "function"
    }
  ],
  "bytecode": "0x60806040523480156200001157600080fd5b50604051620026983803806200269883398181016040528101906200003791906200050d565b60008251116200007e576040517f08c379a00000000000000000000000000000000000000000000000000000000081526004016200007590620005d4565b60405180910390fd5b60008111801562000090575081518111155b620000d2576040517f08c379a0000000000000000000000000000000000000000000000000000000008152600401620000c9906200066c565b60405180910390fd5b60005b8251811015620002d4576000838281518110620000f757620000f66200068e565b5b60200260200101519050600073ffffffffffffffffffffffffffffffffffffffff168173ffffffffffffffffffffffffffffffffffffffff160362000173576040517f08c379a00000000000000000000000000000000000000000000000000000000081526004016200016a906200070d565b60405180910390fd5b600160008273ffffffffffffffffffffffffffffffffffffffff1673ffffffffffffffffffffffffffffffffffffffff16815260200190815260200160002060009054906101000a900460ff161562000203576040517f08c379a0000000000000000000000000000000000000000000000000000000008152600401620001fa906200077f565b60405180910390fd5b60018060008373ffffffffffffffffffffffffffffffffffffffff1673ffffffffffffffffffffffffffffffffffffffff16815260200190815260200160002060006101000a81548160ff0219169083151502179055506000819080600181540180825580915050600190039060005260206000200160009091909190916101000a81548173ffffffffffffffffffffffffffffffffffffffff021916908373ffffffffffffffffffffffffffffffffffffffff160217905550508080620002cb90620007d0565b915050620000d5565b508060028190555050506200081d565b6000604051905090565b600080fd5b600080fd5b600080fd5b6000601f19601f8301169050919050565b7f4e487b7100000000000000000000000000000000000000000000000000000000600052604160045260246000fd5b6200034882620002fd565b810181811067ffffffffffffffff821117156200036a57620003696200030e565b5b80604052505050565b60006200037f620002e4565b90506200038d82826200033d565b919050565b600067ffffffffffffffff821115620003b057620003af6200030e565b5b602082029050602081019050919050565b600080fd5b600073ffffffffffffffffffffffffffffffffffffffff82169050919050565b6000620003f382620003c6565b9050919050565b6200040581620003e6565b81146200041157600080fd5b50565b6000815190506200042581620003fa565b92915050565b6000620004426200043c8462000392565b62000373565b90508083825260208201905060208402830185811115620004685762000467620003c1565b5b835b8181101562000495578062000480888262000414565b8452602084019350506020810190506200046a565b5050509392505050565b600082601f830112620004b757620004b6620002f8565b5b8151620004c98482602086016200042b565b91505092915050565b6000819050919050565b620004e781620004d2565b8114620004f357600080fd5b50565b6000815190506200050781620004dc565b92915050565b60008060408385031215620005275762000526620002ee565b5b600083015167ffffffffffffffff811115620005485762000547620002f3565b5b62000556858286016200049f565b92505060206200056985828601620004f6565b9150509250929050565b600082825260208201905092915050565b7f6f776e6572732072657175697265640000000000000000000000000000000000600082015250565b6000620005bc600f8362000573565b9150620005c98262000584565b602082019050919050565b60006020820190508181036000830152620005ef81620005ad565b9050919050565b7f696e76616c6964206e756d626572206f6620726571756972656420636f6e666960008201527f726d6174696f6e73000000000000000000000000000000000000000000000000602082015250565b60006200065460288362000573565b91506200066182620005f6565b604082019050919050565b60006020820190508181036000830152620006878162000645565b9050919050565b7f4e487b7100000000000000000000000000000000000000000000000000000000600052603260045260246000fd5b7f696e76616c6964206f776e657200000000000000000000000000000000000000600082015250565b6000620006f5600d8362000573565b91506200070282620006bd565b602082019050919050565b600060208201905081810360008301526200072881620006e6565b9050919050565b7f6f776e6572206e6f7420756e6971756500000000000000000000000000000000600082015250565b60006200076760108362000573565b915062000774826200072f565b602082019050919050565b600060208201905081810360008301526200079a8162000758565b9050919050565b7f4e487b7100000000000000000000000000000000000000000000000000000000600052601160045260246000fd5b6000620007dd82620004d2565b91507fffffffffffffffffffffffffffffffffffffffffffffffffffffffffffffffff8203620008125762000811620007a1565b5b600182019050919050565b611e6b806200082d6000396000f3fe6080604052600436106100c65760003560e01c80633411c81c1161007f578063b759f95411610059578063b759f95414610303578063d0e30db01461032c578063dc8452cd14610336578063fe0d94c1146103615761011d565b80633411c81c1461025a5780639ace38c214610297578063a0e67e2b146102d85761011d565b8063025e7c271461012257806314de327f1461015f57806320c5429b146101885780632e7700f0146101b15780632f54bf6e146101dc57806333ea3dc8146102195761011d565b3661011d573373ffffffffffffffffffffffffffffffffffffffff167f90890809c654f11d6e72a28fa60149770a0d11ec6c92319d6ceb2bb0a4ea1a1534476040516101139291906111a1565b60405180910390a2005b600080fd5b34801561012e57600080fd5b506101496004803603810190610144919061120a565b61038a565b6040516101569190611278565b60405180910390f35b34801561016b57600080fd5b5061018660048036038101906101819190611405565b6103c9565b005b34801561019457600080fd5b506101af60048036038101906101aa919061120a565b6105cc565b005b3480156101bd57600080fd5b506101c6610863565b6040516101d39190611474565b60405180910390f35b3480156101e857600080fd5b5061020360048036038101906101fe919061148f565b610870565b60405161021091906114d7565b60405180910390f35b34801561022557600080fd5b50610240600480360381019061023b919061120a565b610890565b604051610251959493929190611571565b60405180910390f35b34801561026657600080fd5b50610281600480360381019061027c91906115cb565b6109a3565b60405161028e91906114d7565b60405180910390f35b3480156102a357600080fd5b506102be60048036038101906102b9919061120a565b6109d2565b6040516102cf959493929190611571565b60405180910390f35b3480156102e457600080fd5b506102ed610acd565b6040516102fa91906116c9565b60405180910390f35b34801561030f57600080fd5b5061032a6004803603810190610325919061120a565b610b5b565b005b610334610e38565b005b34801561034257600080fd5b5061034b610e8a565b6040516103589190611474565b60405180910390f35b34801561036d57600080fd5b506103886004803603810190610383919061120a565b610e90565b005b6000818154811061039a57600080fd5b906000526020600020016000915054906101000a900473ffffffffffffffffffffffffffffffffffffffff1681565b600160003373ffffffffffffffffffffffffffffffffffffffff1673ffffffffffffffffffffffffffffffffffffffff16815260200190815260200160002060009054906101000a900460ff16610455576040517f08c379a000000000000000000000000000000000000000000000000000000000815260040161044c90611748565b60405180910390fd5b6000600380549050905060036040518060a001604052808673ffffffffffffffffffffffffffffffffffffffff1681526020018581526020018481526020016000151581526020016000815250908060018154018082558091505060019003906000526020600020906005020160009091909190915060008201518160000160006101000a81548173ffffffffffffffffffffffffffffffffffffffff021916908373ffffffffffffffffffffffffffffffffffffffff1602179055506020820151816001015560408201518160020190816105319190611974565b5060608201518160030160006101000a81548160ff0219169083151502179055506080820151816004015550508373ffffffffffffffffffffffffffffffffffffffff16813373ffffffffffffffffffffffffffffffffffffffff167fae88b418f2b5e7c7e4a839d4244a762f0552c731cb27e637651304317491b10786866040516105be929190611a46565b60405180910390a450505050565b600160003373ffffffffffffffffffffffffffffffffffffffff1673ffffffffffffffffffffffffffffffffffffffff16815260200190815260200160002060009054906101000a900460ff16610658576040517f08c379a000000000000000000000000000000000000000000000000000000000815260040161064f90611748565b60405180910390fd5b8060038054905081106106a0576040517f08c379a000000000000000000000000000000000000000000000000000000000815260040161069790611ac2565b60405180910390fd5b81600381815481106106b5576106b4611ae2565b5b906000526020600020906005020160030160009054906101000a900460ff1615610714576040517f08c379a000000000000000000000000000000000000000000000000000000000815260040161070b90611b5d565b60405180910390fd5b6004600084815260200190815260200160002060003373ffffffffffffffffffffffffffffffffffffffff1673ffffffffffffffffffffffffffffffffffffffff16815260200190815260200160002060009054906101000a900460ff166107b1576040517f08c379a00000000000000000000000000000000000000000000000000000000081526004016107a890611bc9565b60405180910390fd5b60006004600085815260200190815260200160002060003373ffffffffffffffffffffffffffffffffffffffff1673ffffffffffffffffffffffffffffffffffffffff16815260200190815260200160002060006101000a81548160ff021916908315150217905550823373ffffffffffffffffffffffffffffffffffffffff167fec9ab91322523c899ede7830ec9bfc992b5981cdcc27b91162fb23de5791117b60405160405180910390a3505050565b6000600380549050905090565b60016020528060005260406000206000915054906101000a900460ff1681565b60008060606000806000600387815481106108ae576108ad611ae2565b5b906000526020600020906005020190508060000160009054906101000a900473ffffffffffffffffffffffffffffffffffffffff168160010154826002018360030160009054906101000a900460ff16846004015482805461090f90611797565b80601f016020809104026020016040519081016040528092919081815260200182805461093b90611797565b80156109885780601f1061095d57610100808354040283529160200191610988565b820191906000526020600020905b81548152906001019060200180831161096b57829003601f168201915b50505050509250955095509550955095505091939590929450565b60046020528160005260406000206020528060005260406000206000915091509054906101000a900460ff1681565b600381815481106109e257600080fd5b90600052602060002090600502016000915090508060000160009054906101000a900473ffffffffffffffffffffffffffffffffffffffff1690806001015490806002018054610a3190611797565b80601f0160208091040260200160405190810160405280929190818152602001828054610a5d90611797565b8015610aaa5780601f10610a7f57610100808354040283529160200191610aaa565b820191906000526020600020905b815481529060010190602001808311610a8d57829003601f168201915b5050505050908060030160009054906101000a900460ff16908060040154905085565b60606000805480602002602001604051908101604052809291908181526020018280548015610b5157602002820191906000526020600020905b8160009054906101000a900473ffffffffffffffffffffffffffffffffffffffff1673ffffffffffffffffffffffffffffffffffffffff1681526020019060010190808311610b07575b5050505050905090565b600160003373ffffffffffffffffffffffffffffffffffffffff1673ffffffffffffffffffffffffffffffffffffffff16815260200190815260200160002060009054906101000a900460ff16610be7576040517f08c379a0000000000000000000000000000000000000000000000000000000008152600401610bde90611748565b60405180910390fd5b806003805490508110610c2f576040517f08c379a0000000000000000000000000000000000000000000000000000000008152600401610c2690611ac2565b60405180910390fd5b8160038181548110610c4457610c43611ae2565b5b906000526020600020906005020160030160009054906101000a900460ff1615610ca3576040517f08c379a0000000000000000000000000000000000000000000000000000000008152600401610c9a90611b5d565b60405180910390fd5b826004600082815260200190815260200160002060003373ffffffffffffffffffffffffffffffffffffffff1673ffffffffffffffffffffffffffffffffffffffff16815260200190815260200160002060009054906101000a900460ff1615610d42576040517f08c379a0000000000000000000000000000000000000000000000000000000008152600401610d3990611c35565b60405180910390fd5b600060038581548110610d5857610d57611ae2565b5b9060005260206000209060050201905060016004600087815260200190815260200160002060003373ffffffffffffffffffffffffffffffffffffffff1673ffffffffffffffffffffffffffffffffffffffff16815260200190815260200160002060006101000a81548160ff0219169083151502179055506001816004016000828254610de69190611c84565b92505081905550843373ffffffffffffffffffffffffffffffffffffffff167f90ec57f18fa7b15c6b8d5e4d1deb90796c74b2ff23d4d0cecad0cb42a96b312860405160405180910390a35050505050565b3373ffffffffffffffffffffffffffffffffffffffff167f90890809c654f11d6e72a28fa60149770a0d11ec6c92319d6ceb2bb0a4ea1a153447604051610e809291906111a1565b60405180910390a2565b60025481565b600160003373ffffffffffffffffffffffffffffffffffffffff1673ffffffffffffffffffffffffffffffffffffffff16815260200190815260200160002060009054906101000a900460ff16610f1c576040517f08c379a0000000000000000000000000000000000000000000000000000000008152600401610f1390611748565b60405180910390fd5b806003805490508110610f64576040517f08c379a0000000000000000000000000000000000000000000000000000000008152600401610f5b90611ac2565b60405180910390fd5b8160038181548110610f7957610f78611ae2565b5b906000526020600020906005020160030160009054906101000a900460ff1615610fd8576040517f08c379a0000000000000000000000000000000000000000000000000000000008152600401610fcf90611b5d565b60405180910390fd5b600060038481548110610fee57610fed611ae2565b5b9060005260206000209060050201905060025481600401541015611047576040517f08c379a000000000000000000000000000000000000000000000000000000000815260040161103e90611d04565b60405180910390fd5b60018160030160006101000a81548160ff02191690831515021790555060008160000160009054906101000a900473ffffffffffffffffffffffffffffffffffffffff1673ffffffffffffffffffffffffffffffffffffffff168260010154836002016040516110b79190611db2565b60006040518083038185875af1925050503d80600081146110f4576040519150601f19603f3d011682016040523d82523d6000602084013e6110f9565b606091505b505090508061113d576040517f08c379a000000000000000000000000000000000000000000000000000000000815260040161113490611e15565b60405180910390fd5b843373ffffffffffffffffffffffffffffffffffffffff167f892cd8f5b436bd5fb7dac1f11aafb73345d892ba3e9fe09cd94d95ba84928e7360405160405180910390a35050505050565b6000819050919050565b61119b81611188565b82525050565b60006040820190506111b66000830185611192565b6111c36020830184611192565b9392505050565b6000604051905090565b600080fd5b600080fd5b6111e781611188565b81146111f257600080fd5b50565b600081359050611204816111de565b92915050565b6000602082840312156112205761121f6111d4565b5b600061122e848285016111f5565b91505092915050565b600073ffffffffffffffffffffffffffffffffffffffff82169050919050565b600061126282611237565b9050919050565b61127281611257565b82525050565b600060208201905061128d6000830184611269565b92915050565b61129c81611257565b81146112a757600080fd5b50565b6000813590506112b981611293565b92915050565b600080fd5b600080fd5b6000601f19601f8301169050919050565b7f4e487b7100000000000000000000000000000000000000000000000000000000600052604160045260246000fd5b611312826112c9565b810181811067ffffffffffffffff82111715611331576113306112da565b5b80604052505050565b60006113446111ca565b90506113508282611309565b919050565b600067ffffffffffffffff8211156113705761136f6112da565b5b611379826112c9565b9050602081019050919050565b82818337600083830152505050565b60006113a86113a384611355565b61133a565b9050828152602081018484840111156113c4576113c36112c4565b5b6113cf848285611386565b509392505050565b600082601f8301126113ec576113eb6112bf565b5b81356113fc848260208601611395565b91505092915050565b60008060006060848603121561141e5761141d6111d4565b5b600061142c868287016112aa565b935050602061143d868287016111f5565b925050604084013567ffffffffffffffff81111561145e5761145d6111d9565b5b61146a868287016113d7565b9150509250925092565b60006020820190506114896000830184611192565b92915050565b6000602082840312156114a5576114a46111d4565b5b60006114b3848285016112aa565b91505092915050565b60008115159050919050565b6114d1816114bc565b82525050565b60006020820190506114ec60008301846114c8565b92915050565b600081519050919050565b600082825260208201905092915050565b60005b8381101561152c578082015181840152602081019050611511565b60008484015250505050565b6000611543826114f2565b61154d81856114fd565b935061155d81856020860161150e565b611566816112c9565b840191505092915050565b600060a0820190506115866000830188611269565b6115936020830187611192565b81810360408301526115a58186611538565b90506115b460608301856114c8565b6115c16080830184611192565b9695505050505050565b600080604083850312156115e2576115e16111d4565b5b60006115f0858286016111f5565b9250506020611601858286016112aa565b9150509250929050565b600081519050919050565b600082825260208201905092915050565b6000819050602082019050919050565b61164081611257565b82525050565b60006116528383611637565b60208301905092915050565b6000602082019050919050565b60006116768261160b565b6116808185611616565b935061168b83611627565b8060005b838110156116bc5781516116a38882611646565b97506116ae8361165e565b92505060018101905061168f565b5085935050505092915050565b600060208201905081810360008301526116e3818461166b565b905092915050565b600082825260208201905092915050565b7f6e6f74206f776e65720000000000000000000000000000000000000000000000600082015250565b60006117326009836116eb565b915061173d826116fc565b602082019050919050565b6000602082019050818103600083015261176181611725565b9050919050565b7f4e487b7100000000000000000000000000000000000000000000000000000000600052602260045260246000fd5b600060028204905060018216806117af57607f821691505b6020821081036117c2576117c1611768565b5b50919050565b60008190508160005260206000209050919050565b60006020601f8301049050919050565b600082821b905092915050565b60006008830261182a7fffffffffffffffffffffffffffffffffffffffffffffffffffffffffffffffff826117ed565b61183486836117ed565b95508019841693508086168417925050509392505050565b6000819050919050565b600061187161186c61186784611188565b61184c565b611188565b9050919050565b6000819050919050565b61188b83611856565b61189f61189782611878565b8484546117fa565b825550505050565b600090565b6118b46118a7565b6118bf818484611882565b505050565b5b818110156118e3576118d86000826118ac565b6001810190506118c5565b5050565b601f821115611928576118f9816117c8565b611902846117dd565b81016020851015611911578190505b61192561191d856117dd565b8301826118c4565b50505b505050565b600082821c905092915050565b600061194b6000198460080261192d565b1980831691505092915050565b6000611964838361193a565b9150826002028217905092915050565b61197d826114f2565b67ffffffffffffffff811115611996576119956112da565b5b6119a08254611797565b6119ab8282856118e7565b600060209050601f8311600181146119de57600084156119cc578287015190505b6119d68582611958565b865550611a3e565b601f1984166119ec866117c8565b60005b82811015611a14578489015182556001820191506020850194506020810190506119ef565b86831015611a315784890151611a2d601f89168261193a565b8355505b6001600288020188555050505b505050505050565b6000604082019050611a5b6000830185611192565b8181036020830152611a6d8184611538565b90509392505050565b7f747820646f6573206e6f74206578697374000000000000000000000000000000600082015250565b6000611aac6011836116eb565b9150611ab782611a76565b602082019050919050565b60006020820190508181036000830152611adb81611a9f565b9050919050565b7f4e487b7100000000000000000000000000000000000000000000000000000000600052603260045260246000fd5b7f747820616c726561647920657865637574656400000000000000000000000000600082015250565b6000611b476013836116eb565b9150611b5282611b11565b602082019050919050565b60006020820190508181036000830152611b7681611b3a565b9050919050565b7f7478206e6f7420617070726f7665640000000000000000000000000000000000600082015250565b6000611bb3600f836116eb565b9150611bbe82611b7d565b602082019050919050565b60006020820190508181036000830152611be281611ba6565b9050919050565b7f747820616c726561647920617070726f76656400000000000000000000000000600082015250565b6000611c1f6013836116eb565b9150611c2a82611be9565b602082019050919050565b60006020820190508181036000830152611c4e81611c12565b9050919050565b7f4e487b7100000000000000000000000000000000000000000000000000000000600052601160045260246000fd5b6000611c8f82611188565b9150611c9a83611188565b9250828201905080821115611cb257611cb1611c55565b5b92915050565b7f63616e6e6f742065786563757465207478000000000000000000000000000000600082015250565b6000611cee6011836116eb565b9150611cf982611cb8565b602082019050919050565b60006020820190508181036000830152611d1d81611ce1565b9050919050565b600081905092915050565b60008154611d3c81611797565b611d468186611d24565b94506001821660008114611d615760018114611d7657611da9565b60ff1983168652811515820286019350611da9565b611d7f856117c8565b60005b83811015611da157815481890152600182019150602081019050611d82565b838801955050505b50505092915050565b6000611dbe8284611d2f565b915081905092915050565b7f7478206661696c65640000000000000000000000000000000000000000000000600082015250565b6000611dff6009836116eb565b9150611e0a82611dc9565b602082019050919050565b60006020820190508181036000830152611e2e81611df2565b905091905056fea26469706673582212204d5ec5998598c95f0619f108e33da9f2ac8a074196a42f433a5bcbcd74e0d8b564736f6c63430008110033",
  "immutableReferences": {},
  "source": "// SPDX-License-Identifier: MIT\npragma solidity ^0.8.0;\n\ncontract MultiSigWallet {\n    // Event emitted when a deposit is made to the contract\n    event Deposit(address indexed sender, uint amount, uint balance);\n\n    // Event emitted when a transaction is submitted\n    event Submit(address indexed owner, uint indexed txId, address indexed to, uint value, bytes data);\n\n    // Event emitted when an owner approves a transaction\n    event Approve(address indexed owner, uint indexed txId);\n\n    // Event emitted when an owner revokes their approval of a transaction\n    event Revoke(address indexed owner, uint indexed txId);\n\n    // Event emitted when a transaction is executed\n    event Execute(address indexed owner, uint indexed txId);\n\n    // Represent a transaction\n    struct Transaction {\n        address to;\n        uint value;\n        bytes data;\n        bool executed;\n        uint numConfirmations;\n    }\n\n    // Store the addresses of the owners of the wallet\n    address[] public owners; \n    // Mapping to keep track of which addresses are owners of the wallet\n    mapping(address => bool) public isOwner; \n    // The number of required confirmations for a transaction to be executed\n    uint public required;  \n\n    // Store all of the transactions submitted to the wallet\n    Transaction[] public transactions; \n    // Mapping to keep track of which owners have approved each transaction\n    mapping(uint => mapping(address => bool)) public confirmations;   \n\n    // checks whether the caller of the function is the owner\n    modifier onlyOwner() {\n        require(isOwner[msg.sender], \"not owner\");\n        _;\n    }\n    // checks whether a transaction with a given ID exists\n    modifier txExists(uint _txId) {\n        require(_txId < transactions.length, \"tx does not exist\");\n        _;\n    }\n    // checks whether a transaction with a given ID has not been executed\n    modifier notExecuted(uint _txId) {\n        require(!transactions[_txId].executed, \"tx already executed\");\n        _;\n    }\n    // checks whether a transaction with a given ID has not been approved by the caller of the function\n    modifier notApproved(uint _txId) {\n        require(!confirmations[_txId][msg.sender], \"tx already approved\");\n        _;\n    }\n\n\n    constructor(address[] memory _owners, uint _required) {\n        require(_owners.length > 0, \"owners required\");\n        require(_required > 0 && _required <= _owners.length, \"invalid number of required confirmations\");\n\n        for (uint i = 0; i < _owners.length; i++) {\n            address owner = _owners[i];\n\n            require(owner != address(0), \"invalid owner\");\n            require(!isOwner[owner], \"owner not unique\");\n\n            isOwner[owner] = true;\n            owners.push(owner);\n        }\n\n        required = _required;\n    }\n\n    // Function that allows the contract to receive ETH\n    receive() external payable {\n        emit Deposit(msg.sender, msg.value, address(this).balance);\n    }\n\n    function deposit() external payable {\n        emit Deposit(msg.sender, msg.value, address(this).balance);\n    }\n    // use callData for cheaper gas fees\n    // This function allows the contract owner to submit a new transaction.\n    // The transaction details are added to the transactions array and emitted through the Submit event.\n    function submit(address _to, uint _value, bytes memory _data) external onlyOwner {\n        \n        uint txId = transactions.length;\n\n        transactions.push(Transaction({\n            to: _to,\n            value: _value,\n            data: _data,\n            numConfirmations: 0,\n            executed: false\n        }));\n\n            emit Submit(msg.sender, txId, _to, _value, _data);\n\n    }\n\n    // This function allows an owner to approve a transaction.\n    // The confirmations mapping is updated with the owner's approval and emitted through the Approve event.\n    function approve(uint _txId) external onlyOwner txExists(_txId) notExecuted(_txId) notApproved(_txId) {\n\n        Transaction storage transaction = transactions[_txId];\n\n\n        confirmations[_txId][msg.sender] = true;\n        // transaction.isApproved[msg.sender] = true;\n        transaction.numConfirmations += 1;\n\n        emit Approve(msg.sender, _txId);    \n    }\n    // This function is a helper function to get the number of confirmations for a given transaction.\n    // function _getConfirmationCount(uint _txId) private view returns (uint) {\n    //     uint count = 0;\n    //     for (uint i = 0; i < owners.length; i++) {\n    //         if (confirmations[_txId][owners[i]]) {\n    //             count += 1;\n    //         }\n    //     }\n    //     return count;\n\n    function getTransaction(uint _txId) public view returns (address to, uint value, bytes memory data, bool executed, uint numConfirmations) {\n        Transaction storage transaction = transactions[_txId];\n\n        return (\n            transaction.to,\n            transaction.value,\n            transaction.data,\n            transaction.executed,\n            transaction.numConfirmations\n        );\n    }\n\n    function getTransactionCount() public view returns (uint) {\n        return transactions.length;\n    }\n\n    function getOwners() public view returns (address[] memory) {\n        return owners;\n    }\n\n\n    // }\n    // This function allows the contract owner to execute a transaction once the required number of approvals is reached.\n    // The transaction is marked as executed and the transaction details are sent to the recipient through a call.\n    // An Execute event is emitted with the transaction ID.\n    function execute(uint _txId) external onlyOwner txExists(_txId) notExecuted(_txId) {\n        // require(_getConfirmationCount(_txId) >= required, \"cannot execute tx\");\n\n        Transaction storage transaction = transactions[_txId];\n         \n        require(transaction.numConfirmations >= required, \"cannot execute tx\");\n        transaction.executed = true;\n\n        (bool success, ) = transaction.to.call{value: transaction.value}(transaction.data);\n        require(success, \"tx failed\");\n\n        emit Execute(msg.sender, _txId);\n    }\n    // This function allows the contract owner to revoke their approval of a transaction.\n    // The confirmations mapping is updated with the owner's revocation and emitted through the Revoke event.\n    function revoke(uint _txId) external onlyOwner txExists(_txId) notExecuted(_txId) {\n        require(confirmations[_txId][msg.sender], \"tx not approved\");\n\n        confirmations[_txId][msg.sender] = false;\n\n        emit Revoke(msg.sender, _txId);\n    }\n\n\n}",
  "sourcePath": "/home/joedakwa/joe/multi-sig/contracts/MultiSigWallet.sol",
  "compiler": {
    "name": "solc",
    "version": "0.8.17+commit.8df45f5f.Emscripten.clang"
  },
  "schemaVersion": "3.4.10",
  "updatedAt": "2023-05-16T10:48:25.178Z",
  "devdoc": {
    "kind": "dev",
    "methods": {},
    "version": 1
  },
  "userdoc": {
    "kind": "user",
    "methods": {},
    "version": 1
  }
}